{
  "contractName": "SimpleCrowdsale",
  "abi": [
    {
      "constant": true,
      "inputs": [],
      "name": "investmentReceived",
      "outputs": [
        {
          "name": "",
          "type": "uint256"
        }
      ],
      "payable": false,
      "stateMutability": "view",
      "type": "function"
    },
    {
      "constant": true,
      "inputs": [],
      "name": "endTime",
      "outputs": [
        {
          "name": "",
          "type": "uint256"
        }
      ],
      "payable": false,
      "stateMutability": "view",
      "type": "function"
    },
    {
      "constant": true,
      "inputs": [],
      "name": "investmentRefunded",
      "outputs": [
        {
          "name": "",
          "type": "uint256"
        }
      ],
      "payable": false,
      "stateMutability": "view",
      "type": "function"
    },
    {
      "constant": true,
      "inputs": [
        {
          "name": "",
          "type": "address"
        }
      ],
      "name": "balanceOf",
      "outputs": [
        {
          "name": "",
          "type": "uint256"
        }
      ],
      "payable": false,
      "stateMutability": "view",
      "type": "function"
    },
    {
      "constant": true,
      "inputs": [],
      "name": "startTime",
      "outputs": [
        {
          "name": "",
          "type": "uint256"
        }
      ],
      "payable": false,
      "stateMutability": "view",
      "type": "function"
    },
    {
      "constant": true,
      "inputs": [],
      "name": "isFinalized",
      "outputs": [
        {
          "name": "",
          "type": "bool"
        }
      ],
      "payable": false,
      "stateMutability": "view",
      "type": "function"
    },
    {
      "constant": true,
      "inputs": [],
      "name": "owner",
      "outputs": [
        {
          "name": "",
          "type": "address"
        }
      ],
      "payable": false,
      "stateMutability": "view",
      "type": "function"
    },
    {
      "constant": true,
      "inputs": [],
      "name": "weiInvestmentObjective",
      "outputs": [
        {
          "name": "",
          "type": "uint256"
        }
      ],
      "payable": false,
      "stateMutability": "view",
      "type": "function"
    },
    {
      "constant": true,
      "inputs": [],
      "name": "isRefundingAllowed",
      "outputs": [
        {
          "name": "",
          "type": "bool"
        }
      ],
      "payable": false,
      "stateMutability": "view",
      "type": "function"
    },
    {
      "constant": true,
      "inputs": [],
      "name": "weiTokenPrice",
      "outputs": [
        {
          "name": "",
          "type": "uint256"
        }
      ],
      "payable": false,
      "stateMutability": "view",
      "type": "function"
    },
    {
      "constant": true,
      "inputs": [],
      "name": "crowdsaleToken",
      "outputs": [
        {
          "name": "",
          "type": "address"
        }
      ],
      "payable": false,
      "stateMutability": "view",
      "type": "function"
    },
    {
      "inputs": [
        {
          "name": "_startTime",
          "type": "uint256"
        },
        {
          "name": "_endTime",
          "type": "uint256"
        },
        {
          "name": "_weiTokenPrice",
          "type": "uint256"
        },
        {
          "name": "_weiInvestmentObjective",
          "type": "uint256"
        }
      ],
      "payable": false,
      "stateMutability": "nonpayable",
      "type": "constructor"
    },
    {
      "anonymous": false,
      "inputs": [
        {
          "indexed": true,
          "name": "investor",
          "type": "address"
        },
        {
          "indexed": false,
          "name": "value",
          "type": "uint256"
        }
      ],
      "name": "LogInvestment",
      "type": "event"
    },
    {
      "anonymous": false,
      "inputs": [
        {
          "indexed": true,
          "name": "investor",
          "type": "address"
        },
        {
          "indexed": false,
          "name": "numTokens",
          "type": "uint256"
        }
      ],
      "name": "LogTokenAssignment",
      "type": "event"
    },
    {
      "anonymous": false,
      "inputs": [
        {
          "indexed": false,
          "name": "investor",
          "type": "address"
        },
        {
          "indexed": false,
          "name": "value",
          "type": "uint256"
        }
      ],
      "name": "Refund",
      "type": "event"
    },
    {
      "constant": false,
      "inputs": [],
      "name": "invest",
      "outputs": [],
      "payable": true,
      "stateMutability": "payable",
      "type": "function"
    },
    {
      "constant": false,
      "inputs": [],
      "name": "finalize",
      "outputs": [],
      "payable": false,
      "stateMutability": "nonpayable",
      "type": "function"
    },
    {
      "constant": false,
      "inputs": [],
      "name": "refund",
      "outputs": [],
      "payable": false,
      "stateMutability": "nonpayable",
      "type": "function"
    }
  ],
  "bytecode": "0x608060405234801561001057600080fd5b506040516080806122578339810180604052608081101561003057600080fd5b810190808051906020019092919080519060200190929190805190602001909291908051906020019092919050505042841015151561006e57600080fd5b83831015151561007d57600080fd5b6000821415151561008d57600080fd5b6000811415151561009d57600080fd5b33600460006101000a81548173ffffffffffffffffffffffffffffffffffffffff021916908373ffffffffffffffffffffffffffffffffffffffff16021790555083600081905550826001819055508160028190555080600381905550610102610183565b604051809103906000f08015801561011e573d6000803e3d6000fd5b50600860026101000a81548173ffffffffffffffffffffffffffffffffffffffff021916908373ffffffffffffffffffffffffffffffffffffffff1602179055506000600860006101000a81548160ff02191690831515021790555050505050610193565b6040516117a080610ab783390190565b610915806101a26000396000f3fe6080604052600436106100d0576000357c0100000000000000000000000000000000000000000000000000000000900463ffffffff1680631c0a5c10146100d55780633197cbb61461010057806338ef93801461012b5780634bb278f314610156578063590e1ae31461016d57806370a082311461018457806378e97925146101e95780638d4e4083146102145780638da5cb5b14610243578063bab34f431461029a578063cb6f16d4146102c5578063e8b5e51f146102f4578063ee56cf41146102fe578063fa65dfac14610329575b600080fd5b3480156100e157600080fd5b506100ea610380565b6040518082815260200191505060405180910390f35b34801561010c57600080fd5b50610115610386565b6040518082815260200191505060405180910390f35b34801561013757600080fd5b5061014061038c565b6040518082815260200191505060405180910390f35b34801561016257600080fd5b5061016b610392565b005b34801561017957600080fd5b50610182610507565b005b34801561019057600080fd5b506101d3600480360360208110156101a757600080fd5b81019080803573ffffffffffffffffffffffffffffffffffffffff169060200190929190505050610684565b6040518082815260200191505060405180910390f35b3480156101f557600080fd5b506101fe61069c565b6040518082815260200191505060405180910390f35b34801561022057600080fd5b506102296106a2565b604051808215151515815260200191505060405180910390f35b34801561024f57600080fd5b506102586106b5565b604051808273ffffffffffffffffffffffffffffffffffffffff1673ffffffffffffffffffffffffffffffffffffffff16815260200191505060405180910390f35b3480156102a657600080fd5b506102af6106db565b6040518082815260200191505060405180910390f35b3480156102d157600080fd5b506102da6106e1565b604051808215151515815260200191505060405180910390f35b6102fc6106f4565b005b34801561030a57600080fd5b506103136107b7565b6040518082815260200191505060405180910390f35b34801561033557600080fd5b5061033e6107bd565b604051808273ffffffffffffffffffffffffffffffffffffffff1673ffffffffffffffffffffffffffffffffffffffff16815260200191505060405180910390f35b60065481565b60015481565b60075481565b600860009054906101000a900460ff161515156103ae57600080fd5b600460009054906101000a900473ffffffffffffffffffffffffffffffffffffffff1673ffffffffffffffffffffffffffffffffffffffff163373ffffffffffffffffffffffffffffffffffffffff1614151561040a57600080fd5b60006001905060006003546006541015905081156105035780156104cb57600860029054906101000a900473ffffffffffffffffffffffffffffffffffffffff1673ffffffffffffffffffffffffffffffffffffffff166386d1a69f6040518163ffffffff167c0100000000000000000000000000000000000000000000000000000000028152600401600060405180830381600087803b1580156104ae57600080fd5b505af11580156104c2573d6000803e3d6000fd5b505050506104e7565b6001600860016101000a81548160ff0219169083151502179055505b6001600860006101000a81548160ff0219169083151502179055505b5050565b600860019054906101000a900460ff16151561052257600080fd5b60003390506000600560008373ffffffffffffffffffffffffffffffffffffffff1673ffffffffffffffffffffffffffffffffffffffff168152602001908152602001600020549050600081141561057957600080fd5b6000600560008473ffffffffffffffffffffffffffffffffffffffff1673ffffffffffffffffffffffffffffffffffffffff16815260200190815260200160002081905550806007600082825401925050819055507fbb28353e4598c3b9199101a66e0989549b659a59a54d2c27fbb183f1932c8e6d3382604051808373ffffffffffffffffffffffffffffffffffffffff1673ffffffffffffffffffffffffffffffffffffffff1681526020018281526020019250505060405180910390a18173ffffffffffffffffffffffffffffffffffffffff166108fc829081150290604051600060405180830381858888f1935050505015801561067f573d6000803e3d6000fd5b505050565b60056020528060005260406000206000915090505481565b60005481565b600860009054906101000a900460ff1681565b600460009054906101000a900473ffffffffffffffffffffffffffffffffffffffff1681565b60035481565b600860019054906101000a900460ff1681565b6000339050600034905080600560008473ffffffffffffffffffffffffffffffffffffffff1673ffffffffffffffffffffffffffffffffffffffff168152602001908152602001600020600082825401925050819055508060066000828254019250508190555061076582826107e3565b8173ffffffffffffffffffffffffffffffffffffffff167fc74590e3281392e897f5c0f45530951cfe0db0e86c76d65af861e80b925871a4826040518082815260200191505060405180910390a25050565b60025481565b600860029054906101000a900473ffffffffffffffffffffffffffffffffffffffff1681565b60006107ee826108d2565b9050600860029054906101000a900473ffffffffffffffffffffffffffffffffffffffff1673ffffffffffffffffffffffffffffffffffffffff166340c10f1984836040518363ffffffff167c0100000000000000000000000000000000000000000000000000000000028152600401808373ffffffffffffffffffffffffffffffffffffffff1673ffffffffffffffffffffffffffffffffffffffff16815260200182815260200192505050600060405180830381600087803b1580156108b557600080fd5b505af11580156108c9573d6000803e3d6000fd5b50505050505050565b6000600254828115156108e157fe5b04905091905056fea165627a7a7230582084c4645187b7d0714fa307370449103196db11567eb4980aac545264a3c91fd7002960806040526040805190810160405280600a81526020017f4441707020546f6b656e00000000000000000000000000000000000000000000815250600090805190602001906200005192919062000302565b506040805190810160405280600481526020017f4441505000000000000000000000000000000000000000000000000000000000815250600190805190602001906200009f92919062000302565b5060126002556000600860006101000a81548160ff021916908315150217905550348015620000cd57600080fd5b5033600460006101000a81548173ffffffffffffffffffffffffffffffffffffffff021916908373ffffffffffffffffffffffffffffffffffffffff160217905550600254600a0a620f4240026003819055506200015f600460009054906101000a900473ffffffffffffffffffffffffffffffffffffffff16600354620001cd640100000000026401000000009004565b3373ffffffffffffffffffffffffffffffffffffffff16600073ffffffffffffffffffffffffffffffffffffffff167fddf252ad1be2c89b69c2b068fc378daa952ba7f163c4a11628f55a4df523b3ef6003546040518082815260200191505060405180910390a3620003b1565b600460009054906101000a900473ffffffffffffffffffffffffffffffffffffffff1673ffffffffffffffffffffffffffffffffffffffff163373ffffffffffffffffffffffffffffffffffffffff161415156200022a57600080fd5b80600560008473ffffffffffffffffffffffffffffffffffffffff1673ffffffffffffffffffffffffffffffffffffffff168152602001908152602001600020600082825401925050819055508173ffffffffffffffffffffffffffffffffffffffff16600460009054906101000a900473ffffffffffffffffffffffffffffffffffffffff1673ffffffffffffffffffffffffffffffffffffffff167fddf252ad1be2c89b69c2b068fc378daa952ba7f163c4a11628f55a4df523b3ef836040518082815260200191505060405180910390a35050565b828054600181600116156101000203166002900490600052602060002090601f016020900481019282601f106200034557805160ff191683800117855562000376565b8280016001018555821562000376579182015b828111156200037557825182559160200191906001019062000358565b5b50905062000385919062000389565b5090565b620003ae91905b80821115620003aa57600081600090555060010162000390565b5090565b90565b6113df80620003c16000396000f3fe6080604052600436106100db576000357c0100000000000000000000000000000000000000000000000000000000900463ffffffff16806306fdde03146100e0578063095ea7b31461017057806318160ddd146101e357806323b872dd1461020e578063313ce567146102a157806340c10f19146102cc57806370a082311461032757806386d1a69f1461038c5780638da5cb5b146103a357806395d89b41146103fa578063961325211461048a578063a9059cbb146104b9578063b414d4b61461052c578063dd62ed3e14610595578063e724529c1461061a575b600080fd5b3480156100ec57600080fd5b506100f5610677565b6040518080602001828103825283818151815260200191508051906020019080838360005b8381101561013557808201518184015260208101905061011a565b50505050905090810190601f1680156101625780820380516001836020036101000a031916815260200191505b509250505060405180910390f35b34801561017c57600080fd5b506101c96004803603604081101561019357600080fd5b81019080803573ffffffffffffffffffffffffffffffffffffffff16906020019092919080359060200190929190505050610715565b604051808215151515815260200191505060405180910390f35b3480156101ef57600080fd5b506101f8610842565b6040518082815260200191505060405180910390f35b34801561021a57600080fd5b506102876004803603606081101561023157600080fd5b81019080803573ffffffffffffffffffffffffffffffffffffffff169060200190929190803573ffffffffffffffffffffffffffffffffffffffff16906020019092919080359060200190929190505050610848565b604051808215151515815260200191505060405180910390f35b3480156102ad57600080fd5b506102b6610878565b6040518082815260200191505060405180910390f35b3480156102d857600080fd5b50610325600480360360408110156102ef57600080fd5b81019080803573ffffffffffffffffffffffffffffffffffffffff1690602001909291908035906020019092919050505061087e565b005b34801561033357600080fd5b506103766004803603602081101561034a57600080fd5b81019080803573ffffffffffffffffffffffffffffffffffffffff1690602001909291905050506109b2565b6040518082815260200191505060405180910390f35b34801561039857600080fd5b506103a16109ca565b005b3480156103af57600080fd5b506103b8610a43565b604051808273ffffffffffffffffffffffffffffffffffffffff1673ffffffffffffffffffffffffffffffffffffffff16815260200191505060405180910390f35b34801561040657600080fd5b5061040f610a69565b6040518080602001828103825283818151815260200191508051906020019080838360005b8381101561044f578082015181840152602081019050610434565b50505050905090810190601f16801561047c5780820380516001836020036101000a031916815260200191505b509250505060405180910390f35b34801561049657600080fd5b5061049f610b07565b604051808215151515815260200191505060405180910390f35b3480156104c557600080fd5b50610512600480360360408110156104dc57600080fd5b81019080803573ffffffffffffffffffffffffffffffffffffffff16906020019092919080359060200190929190505050610b1a565b604051808215151515815260200191505060405180910390f35b34801561053857600080fd5b5061057b6004803603602081101561054f57600080fd5b81019080803573ffffffffffffffffffffffffffffffffffffffff169060200190929190505050610b48565b604051808215151515815260200191505060405180910390f35b3480156105a157600080fd5b50610604600480360360408110156105b857600080fd5b81019080803573ffffffffffffffffffffffffffffffffffffffff169060200190929190803573ffffffffffffffffffffffffffffffffffffffff169060200190929190505050610b68565b6040518082815260200191505060405180910390f35b34801561062657600080fd5b506106756004803603604081101561063d57600080fd5b81019080803573ffffffffffffffffffffffffffffffffffffffff169060200190929190803515159060200190929190505050610b8d565b005b60008054600181600116156101000203166002900480601f01602080910402602001604051908101604052809291908181526020018280546001816001161561010002031660029004801561070d5780601f106106e25761010080835404028352916020019161070d565b820191906000526020600020905b8154815290600101906020018083116106f057829003601f168201915b505050505081565b60008073ffffffffffffffffffffffffffffffffffffffff168373ffffffffffffffffffffffffffffffffffffffff161415151561075257600080fd5b81600660003373ffffffffffffffffffffffffffffffffffffffff1673ffffffffffffffffffffffffffffffffffffffff16815260200190815260200160002060008573ffffffffffffffffffffffffffffffffffffffff1673ffffffffffffffffffffffffffffffffffffffff168152602001908152602001600020819055508273ffffffffffffffffffffffffffffffffffffffff163373ffffffffffffffffffffffffffffffffffffffff167f8c5be1e5ebec7d5bd14f71427d1e84f3dd0314c0f7b2291e5b200ac8c7c3b925846040518082815260200191505060405180910390a36001905092915050565b60035481565b6000600860009054906101000a900460ff16151561086557600080fd5b610870848484610d0f565b509392505050565b60025481565b600460009054906101000a900473ffffffffffffffffffffffffffffffffffffffff1673ffffffffffffffffffffffffffffffffffffffff163373ffffffffffffffffffffffffffffffffffffffff161415156108da57600080fd5b80600560008473ffffffffffffffffffffffffffffffffffffffff1673ffffffffffffffffffffffffffffffffffffffff168152602001908152602001600020600082825401925050819055508173ffffffffffffffffffffffffffffffffffffffff16600460009054906101000a900473ffffffffffffffffffffffffffffffffffffffff1673ffffffffffffffffffffffffffffffffffffffff167fddf252ad1be2c89b69c2b068fc378daa952ba7f163c4a11628f55a4df523b3ef836040518082815260200191505060405180910390a35050565b60056020528060005260406000206000915090505481565b600460009054906101000a900473ffffffffffffffffffffffffffffffffffffffff1673ffffffffffffffffffffffffffffffffffffffff163373ffffffffffffffffffffffffffffffffffffffff16141515610a2657600080fd5b6001600860006101000a81548160ff021916908315150217905550565b600460009054906101000a900473ffffffffffffffffffffffffffffffffffffffff1681565b60018054600181600116156101000203166002900480601f016020809104026020016040519081016040528092919081815260200182805460018160011615610100020316600290048015610aff5780601f10610ad457610100808354040283529160200191610aff565b820191906000526020600020905b815481529060010190602001808311610ae257829003601f168201915b505050505081565b600860009054906101000a900460ff1681565b6000600860009054906101000a900460ff161515610b3757600080fd5b610b418383610f0f565b5092915050565b60076020528060005260406000206000915054906101000a900460ff1681565b6006602052816000526040600020602052806000526040600020600091509150505481565b600460009054906101000a900473ffffffffffffffffffffffffffffffffffffffff1673ffffffffffffffffffffffffffffffffffffffff163373ffffffffffffffffffffffffffffffffffffffff16141515610be957600080fd5b600460009054906101000a900473ffffffffffffffffffffffffffffffffffffffff1673ffffffffffffffffffffffffffffffffffffffff163373ffffffffffffffffffffffffffffffffffffffff16141515610c4557600080fd5b80600760008473ffffffffffffffffffffffffffffffffffffffff1673ffffffffffffffffffffffffffffffffffffffff16815260200190815260200160002060006101000a81548160ff0219169083151502179055507f67a17b8db8ff8fa7cff69c2328bf8a35f9be2c88abeea30be900fc28eece28ed8282604051808373ffffffffffffffffffffffffffffffffffffffff1673ffffffffffffffffffffffffffffffffffffffff168152602001821515151581526020019250505060405180910390a15050565b6000600660008573ffffffffffffffffffffffffffffffffffffffff1673ffffffffffffffffffffffffffffffffffffffff16815260200190815260200160002060003373ffffffffffffffffffffffffffffffffffffffff1673ffffffffffffffffffffffffffffffffffffffff168152602001908152602001600020548211151515610d9c57600080fd5b81600560008673ffffffffffffffffffffffffffffffffffffffff1673ffffffffffffffffffffffffffffffffffffffff1681526020019081526020016000205410151515610dea57600080fd5b610e7982600660008773ffffffffffffffffffffffffffffffffffffffff1673ffffffffffffffffffffffffffffffffffffffff16815260200190815260200160002060003373ffffffffffffffffffffffffffffffffffffffff1673ffffffffffffffffffffffffffffffffffffffff16815260200190815260200160002054610f7490919063ffffffff16565b600660008673ffffffffffffffffffffffffffffffffffffffff1673ffffffffffffffffffffffffffffffffffffffff16815260200190815260200160002060003373ffffffffffffffffffffffffffffffffffffffff1673ffffffffffffffffffffffffffffffffffffffff16815260200190815260200160002081905550610f04848484610fff565b600190509392505050565b600081600560003373ffffffffffffffffffffffffffffffffffffffff1673ffffffffffffffffffffffffffffffffffffffff1681526020019081526020016000205410151515610f5f57600080fd5b610f6a338484610fff565b6001905092915050565b6000828211151515610fee576040517f08c379a000000000000000000000000000000000000000000000000000000000815260040180806020018281038252601e8152602001807f536166654d6174683a207375627472616374696f6e206f766572666c6f77000081525060200191505060405180910390fd5b600082840390508091505092915050565b600073ffffffffffffffffffffffffffffffffffffffff168273ffffffffffffffffffffffffffffffffffffffff16141515156110ca576040517f08c379a00000000000000000000000000000000000000000000000000000000081526004018080602001828103825260248152602001807f45524332303a207472616e73666572205f746f20746865207a65726f2061646481526020017f726573730000000000000000000000000000000000000000000000000000000081525060400191505060405180910390fd5b600073ffffffffffffffffffffffffffffffffffffffff168373ffffffffffffffffffffffffffffffffffffffff1614151515611195576040517f08c379a00000000000000000000000000000000000000000000000000000000081526004018080602001828103825260268152602001807f45524332303a207472616e73666572205f66726f6d20746865207a65726f206181526020017f646472657373000000000000000000000000000000000000000000000000000081525060400191505060405180910390fd5b6111e781600560008673ffffffffffffffffffffffffffffffffffffffff1673ffffffffffffffffffffffffffffffffffffffff16815260200190815260200160002054610f7490919063ffffffff16565b600560008573ffffffffffffffffffffffffffffffffffffffff1673ffffffffffffffffffffffffffffffffffffffff1681526020019081526020016000208190555061127c81600560008573ffffffffffffffffffffffffffffffffffffffff1673ffffffffffffffffffffffffffffffffffffffff1681526020019081526020016000205461132990919063ffffffff16565b600560008473ffffffffffffffffffffffffffffffffffffffff1673ffffffffffffffffffffffffffffffffffffffff168152602001908152602001600020819055508173ffffffffffffffffffffffffffffffffffffffff168373ffffffffffffffffffffffffffffffffffffffff167fddf252ad1be2c89b69c2b068fc378daa952ba7f163c4a11628f55a4df523b3ef836040518082815260200191505060405180910390a3505050565b60008082840190508381101515156113a9576040517f08c379a000000000000000000000000000000000000000000000000000000000815260040180806020018281038252601b8152602001807f536166654d6174683a206164646974696f6e206f766572666c6f77000000000081525060200191505060405180910390fd5b809150509291505056fea165627a7a7230582012fe9e2b9a5b96b869efb7a41a1029ae40e8bdf779d485bf90ae8b5428c2ba4b0029",
  "source": "pragma solidity ^0.5.0;\n\nimport \"./CrowdsaleToken.sol\";\n\ncontract SimpleCrowdsale {\n    uint256 public startTime; // start time in UNIX epoch\n    uint256 public endTime; // end time in UNIX epoch\n    uint256 public weiTokenPrice;\n    uint256 public weiInvestmentObjective;\n\n    address public owner;\n       \n    mapping (address => uint256) public balanceOf; // amount of Ether received by each investor\n    uint256 public investmentReceived;\n    uint256 public investmentRefunded;\n    \n    bool public isFinalized;\n    bool public isRefundingAllowed; \n\n    CrowdsaleToken public crowdsaleToken; // instance of the contract of the token being sold\n    \n    constructor(uint256 _startTime, uint256 _endTime, uint256 _weiTokenPrice, uint256 _weiInvestmentObjective) public\n    {\n        require(_startTime >= now);\n        require(_endTime >= _startTime);\n        require(_weiTokenPrice != 0);\n        require(_weiInvestmentObjective != 0);\n\n        owner = msg.sender;\n        \n        startTime = _startTime;\n        endTime = _endTime;\n\n        weiTokenPrice = _weiTokenPrice;\n        weiInvestmentObjective = _weiInvestmentObjective;\n    \n    \t// TODO add _initialSupply ammount to CrowdsaleToken's constructor, atm an arbitrary amount is minted in Token.sol\n        crowdsaleToken = new CrowdsaleToken(); // instantiates the contract of the token being sold in the crowdsale, minting 0 tokens\n        isFinalized = false;\n    }\n    \n    event LogInvestment(address indexed investor, uint256 value);\n    event LogTokenAssignment(address indexed investor, uint256 numTokens);\n    event Refund(address investor, uint256 value);\n    \n    function invest() public payable {\n        // require(isValidInvestment(msg.value));  // checks if valid\n        \n        address investor = msg.sender;\n        uint256 investment = msg.value;\n        \n        balanceOf[investor] += investment; \n        investmentReceived += investment;\n        \n        assignTokens(investor, investment); // converts Ethers into crowdsale tokens\n        emit LogInvestment(investor, investment);      \n    }\n\n    function isValidInvestment(uint256 _investment) internal view returns (bool) {\n        bool nonZeroInvestment = _investment != 0; // False if 0\n        bool withinCrowdsalePeriod = now >= startTime && now <= endTime;  // False if outside crowdsale period\n        \n        return nonZeroInvestment && withinCrowdsalePeriod; // return true if checks passed\n    }\n    \n    function assignTokens(address _beneficiary, uint256 _investment) internal {\n    \n        uint256 _numberOfTokens = calculateNumberOfTokens(_investment); \n        \n        crowdsaleToken.mint(_beneficiary, _numberOfTokens);\n    }\n    \n    function calculateNumberOfTokens(uint256 _investment) internal returns (uint256) {\n        return _investment / weiTokenPrice; \n    }\n    \n    function finalize() public {\n    \trequire (!isFinalized);\n    \trequire (msg.sender == owner);\n    \n        bool isCrowdsaleComplete = true;//now > endTime; \n        bool investmentObjectiveMet = investmentReceived >= weiInvestmentObjective;\n            \n        if (isCrowdsaleComplete)\n        {     \n            if (investmentObjectiveMet)\n\n                crowdsaleToken.release();\n            else \n                isRefundingAllowed = true;\n    \n            isFinalized = true;\n        }               \n    }\n    \n    function refund() public {\n        if (!isRefundingAllowed) revert();\n    \n        address payable investor = msg.sender;\n        uint256 investment = balanceOf[investor];\n        if (investment == 0) revert();\n        balanceOf[investor] = 0;\n        investmentRefunded += investment;\n        emit Refund(msg.sender, investment);\n        // equivalent to\n        // if( !investor.transfer(investment) ) revert();\n        investor.transfer(investment);\n    }\n}\n\n",
  "sourcePath": "/Users/codeme/code/blockchain-developer-bootcamp/src/contracts/SimpleCrowdsale.sol",
  "compiler": {
    "name": "solc",
    "version": "0.5.0+commit.1d4f565a.Emscripten.clang"
  },
  "schemaVersion": "3.0.2",
  "updatedAt": "2019-10-22T18:09:36.829Z",
  "devdoc": {
    "methods": {}
  },
  "userdoc": {
    "methods": {}
  }
}