{
  "contractName": "TranchePricingCrowdsale",
  "abi": [
    {
      "constant": true,
      "inputs": [],
      "name": "investmentReceived",
      "outputs": [
        {
          "name": "",
          "type": "uint256"
        }
      ],
      "payable": false,
      "stateMutability": "view",
      "type": "function"
    },
    {
      "constant": true,
      "inputs": [],
      "name": "endTime",
      "outputs": [
        {
          "name": "",
          "type": "uint256"
        }
      ],
      "payable": false,
      "stateMutability": "view",
      "type": "function"
    },
    {
      "constant": true,
      "inputs": [],
      "name": "investmentRefunded",
      "outputs": [
        {
          "name": "",
          "type": "uint256"
        }
      ],
      "payable": false,
      "stateMutability": "view",
      "type": "function"
    },
    {
      "constant": false,
      "inputs": [],
      "name": "finalize",
      "outputs": [],
      "payable": false,
      "stateMutability": "nonpayable",
      "type": "function"
    },
    {
      "constant": false,
      "inputs": [],
      "name": "refund",
      "outputs": [],
      "payable": false,
      "stateMutability": "nonpayable",
      "type": "function"
    },
    {
      "constant": true,
      "inputs": [
        {
          "name": "",
          "type": "address"
        }
      ],
      "name": "balanceOf",
      "outputs": [
        {
          "name": "",
          "type": "uint256"
        }
      ],
      "payable": false,
      "stateMutability": "view",
      "type": "function"
    },
    {
      "constant": true,
      "inputs": [],
      "name": "startTime",
      "outputs": [
        {
          "name": "",
          "type": "uint256"
        }
      ],
      "payable": false,
      "stateMutability": "view",
      "type": "function"
    },
    {
      "constant": true,
      "inputs": [],
      "name": "isFinalized",
      "outputs": [
        {
          "name": "",
          "type": "bool"
        }
      ],
      "payable": false,
      "stateMutability": "view",
      "type": "function"
    },
    {
      "constant": true,
      "inputs": [],
      "name": "owner",
      "outputs": [
        {
          "name": "",
          "type": "address"
        }
      ],
      "payable": false,
      "stateMutability": "view",
      "type": "function"
    },
    {
      "constant": true,
      "inputs": [],
      "name": "weiInvestmentObjective",
      "outputs": [
        {
          "name": "",
          "type": "uint256"
        }
      ],
      "payable": false,
      "stateMutability": "view",
      "type": "function"
    },
    {
      "constant": false,
      "inputs": [
        {
          "name": "_recipient",
          "type": "address"
        }
      ],
      "name": "killContract",
      "outputs": [],
      "payable": false,
      "stateMutability": "nonpayable",
      "type": "function"
    },
    {
      "constant": true,
      "inputs": [],
      "name": "isRefundingAllowed",
      "outputs": [
        {
          "name": "",
          "type": "bool"
        }
      ],
      "payable": false,
      "stateMutability": "view",
      "type": "function"
    },
    {
      "constant": true,
      "inputs": [],
      "name": "currentTrancheLevel",
      "outputs": [
        {
          "name": "",
          "type": "uint256"
        }
      ],
      "payable": false,
      "stateMutability": "view",
      "type": "function"
    },
    {
      "constant": true,
      "inputs": [
        {
          "name": "",
          "type": "uint256"
        }
      ],
      "name": "trancheStructure",
      "outputs": [
        {
          "name": "weiHighLimit",
          "type": "uint256"
        },
        {
          "name": "weiTokenPrice",
          "type": "uint256"
        }
      ],
      "payable": false,
      "stateMutability": "view",
      "type": "function"
    },
    {
      "constant": false,
      "inputs": [],
      "name": "invest",
      "outputs": [],
      "payable": true,
      "stateMutability": "payable",
      "type": "function"
    },
    {
      "constant": true,
      "inputs": [],
      "name": "weiTokenPrice",
      "outputs": [
        {
          "name": "",
          "type": "uint256"
        }
      ],
      "payable": false,
      "stateMutability": "view",
      "type": "function"
    },
    {
      "constant": true,
      "inputs": [],
      "name": "crowdsaleToken",
      "outputs": [
        {
          "name": "",
          "type": "address"
        }
      ],
      "payable": false,
      "stateMutability": "view",
      "type": "function"
    },
    {
      "inputs": [
        {
          "name": "_startTime",
          "type": "uint256"
        },
        {
          "name": "_endTime",
          "type": "uint256"
        },
        {
          "name": "_etherInvestmentObjective",
          "type": "uint256"
        }
      ],
      "payable": true,
      "stateMutability": "payable",
      "type": "constructor"
    },
    {
      "anonymous": false,
      "inputs": [
        {
          "indexed": true,
          "name": "investor",
          "type": "address"
        },
        {
          "indexed": false,
          "name": "value",
          "type": "uint256"
        }
      ],
      "name": "LogInvestment",
      "type": "event"
    },
    {
      "anonymous": false,
      "inputs": [
        {
          "indexed": true,
          "name": "investor",
          "type": "address"
        },
        {
          "indexed": false,
          "name": "numTokens",
          "type": "uint256"
        }
      ],
      "name": "LogTokenAssignment",
      "type": "event"
    },
    {
      "anonymous": false,
      "inputs": [
        {
          "indexed": false,
          "name": "investor",
          "type": "address"
        },
        {
          "indexed": false,
          "name": "value",
          "type": "uint256"
        }
      ],
      "name": "Refund",
      "type": "event"
    }
  ],
  "bytecode": "0x60806040526040516060806127978339810180604052606081101561002357600080fd5b81019080805190602001909291908051906020019092919080519060200190929190505050828260018342841015151561005c57600080fd5b83831015151561006b57600080fd5b6000821415151561007b57600080fd5b6000811415151561008b57600080fd5b33600460006101000a81548173ffffffffffffffffffffffffffffffffffffffff021916908373ffffffffffffffffffffffffffffffffffffffff160217905550836000819055508260018190555081600281905550806003819055506100f06102c0565b604051809103906000f08015801561010c573d6000803e3d6000fd5b50600860026101000a81548173ffffffffffffffffffffffffffffffffffffffff021916908373ffffffffffffffffffffffffffffffffffffffff1602179055506000600860006101000a81548160ff02191690831515021790555050505050604080519081016040528068a2a15d09519be00000815260200166071afd498d0000815250600960008081526020019081526020016000206000820151816000015560208201518160010155905050604080519081016040528069021e19e0c9bab24000008152602001660aa87bee53800081525060096000600181526020019081526020016000206000820151816000015560208201518160010155905050604080519081016040528069032d26d12e980b6000008152602001660e35fa931a00008152506009600060028152602001908152602001600020600082015181600001556020820151816001015590505060408051908101604052806b033b2e3c9fd0803ce800000081526020016611c37937e08000815250600960006003815260200190815260200160002060008201518160000155602082015181600101559050506000600a819055505050506102d0565b6040516119ad80610dea83390190565b610b0b806102df6000396000f3fe6080604052600436106100f1576000357c0100000000000000000000000000000000000000000000000000000000900463ffffffff1680631c0a5c10146100f65780633197cbb61461012157806338ef93801461014c5780634bb278f314610177578063590e1ae31461018e57806370a08231146101a557806378e979251461020a5780638d4e4083146102355780638da5cb5b14610264578063bab34f43146102bb578063bcea363d146102e6578063cb6f16d414610337578063da406ff614610366578063e404d2d414610391578063e8b5e51f146103e7578063ee56cf41146103f1578063fa65dfac1461041c575b600080fd5b34801561010257600080fd5b5061010b610473565b6040518082815260200191505060405180910390f35b34801561012d57600080fd5b50610136610479565b6040518082815260200191505060405180910390f35b34801561015857600080fd5b5061016161047f565b6040518082815260200191505060405180910390f35b34801561018357600080fd5b5061018c610485565b005b34801561019a57600080fd5b506101a36105fa565b005b3480156101b157600080fd5b506101f4600480360360208110156101c857600080fd5b81019080803573ffffffffffffffffffffffffffffffffffffffff169060200190929190505050610777565b6040518082815260200191505060405180910390f35b34801561021657600080fd5b5061021f61078f565b6040518082815260200191505060405180910390f35b34801561024157600080fd5b5061024a610795565b604051808215151515815260200191505060405180910390f35b34801561027057600080fd5b506102796107a8565b604051808273ffffffffffffffffffffffffffffffffffffffff1673ffffffffffffffffffffffffffffffffffffffff16815260200191505060405180910390f35b3480156102c757600080fd5b506102d06107ce565b6040518082815260200191505060405180910390f35b3480156102f257600080fd5b506103356004803603602081101561030957600080fd5b81019080803573ffffffffffffffffffffffffffffffffffffffff1690602001909291905050506107d4565b005b34801561034357600080fd5b5061034c610849565b604051808215151515815260200191505060405180910390f35b34801561037257600080fd5b5061037b61085c565b6040518082815260200191505060405180910390f35b34801561039d57600080fd5b506103ca600480360360208110156103b457600080fd5b8101908080359060200190929190505050610862565b604051808381526020018281526020019250505060405180910390f35b6103ef610886565b005b3480156103fd57600080fd5b50610406610949565b6040518082815260200191505060405180910390f35b34801561042857600080fd5b5061043161094f565b604051808273ffffffffffffffffffffffffffffffffffffffff1673ffffffffffffffffffffffffffffffffffffffff16815260200191505060405180910390f35b60065481565b60015481565b60075481565b600860009054906101000a900460ff161515156104a157600080fd5b600460009054906101000a900473ffffffffffffffffffffffffffffffffffffffff1673ffffffffffffffffffffffffffffffffffffffff163373ffffffffffffffffffffffffffffffffffffffff161415156104fd57600080fd5b60006001905060006003546006541015905081156105f65780156105be57600860029054906101000a900473ffffffffffffffffffffffffffffffffffffffff1673ffffffffffffffffffffffffffffffffffffffff166386d1a69f6040518163ffffffff167c0100000000000000000000000000000000000000000000000000000000028152600401600060405180830381600087803b1580156105a157600080fd5b505af11580156105b5573d6000803e3d6000fd5b505050506105da565b6001600860016101000a81548160ff0219169083151502179055505b6001600860006101000a81548160ff0219169083151502179055505b5050565b600860019054906101000a900460ff16151561061557600080fd5b60003390506000600560008373ffffffffffffffffffffffffffffffffffffffff1673ffffffffffffffffffffffffffffffffffffffff168152602001908152602001600020549050600081141561066c57600080fd5b6000600560008473ffffffffffffffffffffffffffffffffffffffff1673ffffffffffffffffffffffffffffffffffffffff16815260200190815260200160002081905550806007600082825401925050819055507fbb28353e4598c3b9199101a66e0989549b659a59a54d2c27fbb183f1932c8e6d3382604051808373ffffffffffffffffffffffffffffffffffffffff1673ffffffffffffffffffffffffffffffffffffffff1681526020018281526020019250505060405180910390a18173ffffffffffffffffffffffffffffffffffffffff166108fc829081150290604051600060405180830381858888f19350505050158015610772573d6000803e3d6000fd5b505050565b60056020528060005260406000206000915090505481565b60005481565b600860009054906101000a900460ff1681565b600460009054906101000a900473ffffffffffffffffffffffffffffffffffffffff1681565b60035481565b600460009054906101000a900473ffffffffffffffffffffffffffffffffffffffff1673ffffffffffffffffffffffffffffffffffffffff163373ffffffffffffffffffffffffffffffffffffffff1614151561083057600080fd5b8073ffffffffffffffffffffffffffffffffffffffff16ff5b600860019054906101000a900460ff1681565b600a5481565b60096020528060005260406000206000915090508060000154908060010154905082565b6000339050600034905080600560008473ffffffffffffffffffffffffffffffffffffffff1673ffffffffffffffffffffffffffffffffffffffff16815260200190815260200160002060008282540192505081905550806006600082825401925050819055506108f78282610975565b8173ffffffffffffffffffffffffffffffffffffffff167fc74590e3281392e897f5c0f45530951cfe0db0e86c76d65af861e80b925871a4826040518082815260200191505060405180910390a25050565b60025481565b600860029054906101000a900473ffffffffffffffffffffffffffffffffffffffff1681565b600061098082610a64565b9050600860029054906101000a900473ffffffffffffffffffffffffffffffffffffffff1673ffffffffffffffffffffffffffffffffffffffff166340c10f1984836040518363ffffffff167c0100000000000000000000000000000000000000000000000000000000028152600401808373ffffffffffffffffffffffffffffffffffffffff1673ffffffffffffffffffffffffffffffffffffffff16815260200182815260200192505050600060405180830381600087803b158015610a4757600080fd5b505af1158015610a5b573d6000803e3d6000fd5b50505050505050565b6000610a6e610a83565b60025482811515610a7b57fe5b049050919050565b6000600a5490505b60065460096000838152602001908152602001600020600001541015610ab657806001019050610a8b565b80600a8190555060096000600a548152602001908152602001600020600101546002819055505056fea165627a7a7230582067022deaabaf059da01fee7722e56d4829a7348d258b65db935efb654b7c1fec002960806040526040805190810160405280600a81526020017f4441707020546f6b656e0000000000000000000000000000000000000000000081525060009080519060200190620000519291906200031d565b506040805190810160405280600481526020017f4441505000000000000000000000000000000000000000000000000000000000815250600190805190602001906200009f9291906200031d565b5060126002556000600860006101000a81548160ff0219169083151502179055506000600860016101000a81548160ff021916908315150217905550348015620000e857600080fd5b5033600460006101000a81548173ffffffffffffffffffffffffffffffffffffffff021916908373ffffffffffffffffffffffffffffffffffffffff160217905550600254600a0a620f4240026003819055506200017a600460009054906101000a900473ffffffffffffffffffffffffffffffffffffffff16600354620001e8640100000000026401000000009004565b3373ffffffffffffffffffffffffffffffffffffffff16600073ffffffffffffffffffffffffffffffffffffffff167fddf252ad1be2c89b69c2b068fc378daa952ba7f163c4a11628f55a4df523b3ef6003546040518082815260200191505060405180910390a3620003cc565b600460009054906101000a900473ffffffffffffffffffffffffffffffffffffffff1673ffffffffffffffffffffffffffffffffffffffff163373ffffffffffffffffffffffffffffffffffffffff161415156200024557600080fd5b80600560008473ffffffffffffffffffffffffffffffffffffffff1673ffffffffffffffffffffffffffffffffffffffff168152602001908152602001600020600082825401925050819055508173ffffffffffffffffffffffffffffffffffffffff16600460009054906101000a900473ffffffffffffffffffffffffffffffffffffffff1673ffffffffffffffffffffffffffffffffffffffff167fddf252ad1be2c89b69c2b068fc378daa952ba7f163c4a11628f55a4df523b3ef836040518082815260200191505060405180910390a35050565b828054600181600116156101000203166002900490600052602060002090601f016020900481019282601f106200036057805160ff191683800117855562000391565b8280016001018555821562000391579182015b828111156200039057825182559160200191906001019062000373565b5b509050620003a09190620003a4565b5090565b620003c991905b80821115620003c5576000816000905550600101620003ab565b5090565b90565b6115d180620003dc6000396000f3fe6080604052600436106100fc576000357c0100000000000000000000000000000000000000000000000000000000900463ffffffff16806306fdde0314610101578063095ea7b31461019157806318160ddd1461020457806323b872dd1461022f578063313ce567146102c25780633f4ba83a146102ed57806340c10f19146103045780635c975abb1461035f57806370a082311461038e5780638456cb59146103f357806386d1a69f1461040a5780638da5cb5b1461042157806395d89b41146104785780639613252114610508578063a9059cbb14610537578063b414d4b6146105aa578063dd62ed3e14610613578063e724529c14610698575b600080fd5b34801561010d57600080fd5b506101166106f5565b6040518080602001828103825283818151815260200191508051906020019080838360005b8381101561015657808201518184015260208101905061013b565b50505050905090810190601f1680156101835780820380516001836020036101000a031916815260200191505b509250505060405180910390f35b34801561019d57600080fd5b506101ea600480360360408110156101b457600080fd5b81019080803573ffffffffffffffffffffffffffffffffffffffff16906020019092919080359060200190929190505050610793565b604051808215151515815260200191505060405180910390f35b34801561021057600080fd5b506102196108c0565b6040518082815260200191505060405180910390f35b34801561023b57600080fd5b506102a86004803603606081101561025257600080fd5b81019080803573ffffffffffffffffffffffffffffffffffffffff169060200190929190803573ffffffffffffffffffffffffffffffffffffffff169060200190929190803590602001909291905050506108c6565b604051808215151515815260200191505060405180910390f35b3480156102ce57600080fd5b506102d7610912565b6040518082815260200191505060405180910390f35b3480156102f957600080fd5b50610302610918565b005b34801561031057600080fd5b5061035d6004803603604081101561032757600080fd5b81019080803573ffffffffffffffffffffffffffffffffffffffff169060200190929190803590602001909291905050506109ac565b005b34801561036b57600080fd5b50610374610ae0565b604051808215151515815260200191505060405180910390f35b34801561039a57600080fd5b506103dd600480360360208110156103b157600080fd5b81019080803573ffffffffffffffffffffffffffffffffffffffff169060200190929190505050610af3565b6040518082815260200191505060405180910390f35b3480156103ff57600080fd5b50610408610b0b565b005b34801561041657600080fd5b5061041f610ba0565b005b34801561042d57600080fd5b50610436610c19565b604051808273ffffffffffffffffffffffffffffffffffffffff1673ffffffffffffffffffffffffffffffffffffffff16815260200191505060405180910390f35b34801561048457600080fd5b5061048d610c3f565b6040518080602001828103825283818151815260200191508051906020019080838360005b838110156104cd5780820151818401526020810190506104b2565b50505050905090810190601f1680156104fa5780820380516001836020036101000a031916815260200191505b509250505060405180910390f35b34801561051457600080fd5b5061051d610cdd565b604051808215151515815260200191505060405180910390f35b34801561054357600080fd5b506105906004803603604081101561055a57600080fd5b81019080803573ffffffffffffffffffffffffffffffffffffffff16906020019092919080359060200190929190505050610cf0565b604051808215151515815260200191505060405180910390f35b3480156105b657600080fd5b506105f9600480360360208110156105cd57600080fd5b81019080803573ffffffffffffffffffffffffffffffffffffffff169060200190929190505050610d3a565b604051808215151515815260200191505060405180910390f35b34801561061f57600080fd5b506106826004803603604081101561063657600080fd5b81019080803573ffffffffffffffffffffffffffffffffffffffff169060200190929190803573ffffffffffffffffffffffffffffffffffffffff169060200190929190505050610d5a565b6040518082815260200191505060405180910390f35b3480156106a457600080fd5b506106f3600480360360408110156106bb57600080fd5b81019080803573ffffffffffffffffffffffffffffffffffffffff169060200190929190803515159060200190929190505050610d7f565b005b60008054600181600116156101000203166002900480601f01602080910402602001604051908101604052809291908181526020018280546001816001161561010002031660029004801561078b5780601f106107605761010080835404028352916020019161078b565b820191906000526020600020905b81548152906001019060200180831161076e57829003601f168201915b505050505081565b60008073ffffffffffffffffffffffffffffffffffffffff168373ffffffffffffffffffffffffffffffffffffffff16141515156107d057600080fd5b81600660003373ffffffffffffffffffffffffffffffffffffffff1673ffffffffffffffffffffffffffffffffffffffff16815260200190815260200160002060008573ffffffffffffffffffffffffffffffffffffffff1673ffffffffffffffffffffffffffffffffffffffff168152602001908152602001600020819055508273ffffffffffffffffffffffffffffffffffffffff163373ffffffffffffffffffffffffffffffffffffffff167f8c5be1e5ebec7d5bd14f71427d1e84f3dd0314c0f7b2291e5b200ac8c7c3b925846040518082815260200191505060405180910390a36001905092915050565b60035481565b6000600860009054906101000a900460ff1615156108e357600080fd5b600860019054906101000a900460ff161515156108ff57600080fd5b61090a848484610f01565b509392505050565b60025481565b600460009054906101000a900473ffffffffffffffffffffffffffffffffffffffff1673ffffffffffffffffffffffffffffffffffffffff163373ffffffffffffffffffffffffffffffffffffffff1614151561097457600080fd5b600860019054906101000a900460ff16151561098f57600080fd5b6000600860016101000a81548160ff021916908315150217905550565b600460009054906101000a900473ffffffffffffffffffffffffffffffffffffffff1673ffffffffffffffffffffffffffffffffffffffff163373ffffffffffffffffffffffffffffffffffffffff16141515610a0857600080fd5b80600560008473ffffffffffffffffffffffffffffffffffffffff1673ffffffffffffffffffffffffffffffffffffffff168152602001908152602001600020600082825401925050819055508173ffffffffffffffffffffffffffffffffffffffff16600460009054906101000a900473ffffffffffffffffffffffffffffffffffffffff1673ffffffffffffffffffffffffffffffffffffffff167fddf252ad1be2c89b69c2b068fc378daa952ba7f163c4a11628f55a4df523b3ef836040518082815260200191505060405180910390a35050565b600860019054906101000a900460ff1681565b60056020528060005260406000206000915090505481565b600460009054906101000a900473ffffffffffffffffffffffffffffffffffffffff1673ffffffffffffffffffffffffffffffffffffffff163373ffffffffffffffffffffffffffffffffffffffff16141515610b6757600080fd5b600860019054906101000a900460ff16151515610b8357600080fd5b6001600860016101000a81548160ff021916908315150217905550565b600460009054906101000a900473ffffffffffffffffffffffffffffffffffffffff1673ffffffffffffffffffffffffffffffffffffffff163373ffffffffffffffffffffffffffffffffffffffff16141515610bfc57600080fd5b6001600860006101000a81548160ff021916908315150217905550565b600460009054906101000a900473ffffffffffffffffffffffffffffffffffffffff1681565b60018054600181600116156101000203166002900480601f016020809104026020016040519081016040528092919081815260200182805460018160011615610100020316600290048015610cd55780601f10610caa57610100808354040283529160200191610cd5565b820191906000526020600020905b815481529060010190602001808311610cb857829003601f168201915b505050505081565b600860009054906101000a900460ff1681565b6000600860009054906101000a900460ff161515610d0d57600080fd5b600860019054906101000a900460ff16151515610d2957600080fd5b610d338383611101565b5092915050565b60076020528060005260406000206000915054906101000a900460ff1681565b6006602052816000526040600020602052806000526040600020600091509150505481565b600460009054906101000a900473ffffffffffffffffffffffffffffffffffffffff1673ffffffffffffffffffffffffffffffffffffffff163373ffffffffffffffffffffffffffffffffffffffff16141515610ddb57600080fd5b600460009054906101000a900473ffffffffffffffffffffffffffffffffffffffff1673ffffffffffffffffffffffffffffffffffffffff163373ffffffffffffffffffffffffffffffffffffffff16141515610e3757600080fd5b80600760008473ffffffffffffffffffffffffffffffffffffffff1673ffffffffffffffffffffffffffffffffffffffff16815260200190815260200160002060006101000a81548160ff0219169083151502179055507f67a17b8db8ff8fa7cff69c2328bf8a35f9be2c88abeea30be900fc28eece28ed8282604051808373ffffffffffffffffffffffffffffffffffffffff1673ffffffffffffffffffffffffffffffffffffffff168152602001821515151581526020019250505060405180910390a15050565b6000600660008573ffffffffffffffffffffffffffffffffffffffff1673ffffffffffffffffffffffffffffffffffffffff16815260200190815260200160002060003373ffffffffffffffffffffffffffffffffffffffff1673ffffffffffffffffffffffffffffffffffffffff168152602001908152602001600020548211151515610f8e57600080fd5b81600560008673ffffffffffffffffffffffffffffffffffffffff1673ffffffffffffffffffffffffffffffffffffffff1681526020019081526020016000205410151515610fdc57600080fd5b61106b82600660008773ffffffffffffffffffffffffffffffffffffffff1673ffffffffffffffffffffffffffffffffffffffff16815260200190815260200160002060003373ffffffffffffffffffffffffffffffffffffffff1673ffffffffffffffffffffffffffffffffffffffff1681526020019081526020016000205461116690919063ffffffff16565b600660008673ffffffffffffffffffffffffffffffffffffffff1673ffffffffffffffffffffffffffffffffffffffff16815260200190815260200160002060003373ffffffffffffffffffffffffffffffffffffffff1673ffffffffffffffffffffffffffffffffffffffff168152602001908152602001600020819055506110f68484846111f1565b600190509392505050565b600081600560003373ffffffffffffffffffffffffffffffffffffffff1673ffffffffffffffffffffffffffffffffffffffff168152602001908152602001600020541015151561115157600080fd5b61115c3384846111f1565b6001905092915050565b60008282111515156111e0576040517f08c379a000000000000000000000000000000000000000000000000000000000815260040180806020018281038252601e8152602001807f536166654d6174683a207375627472616374696f6e206f766572666c6f77000081525060200191505060405180910390fd5b600082840390508091505092915050565b600073ffffffffffffffffffffffffffffffffffffffff168273ffffffffffffffffffffffffffffffffffffffff16141515156112bc576040517f08c379a00000000000000000000000000000000000000000000000000000000081526004018080602001828103825260248152602001807f45524332303a207472616e73666572205f746f20746865207a65726f2061646481526020017f726573730000000000000000000000000000000000000000000000000000000081525060400191505060405180910390fd5b600073ffffffffffffffffffffffffffffffffffffffff168373ffffffffffffffffffffffffffffffffffffffff1614151515611387576040517f08c379a00000000000000000000000000000000000000000000000000000000081526004018080602001828103825260268152602001807f45524332303a207472616e73666572205f66726f6d20746865207a65726f206181526020017f646472657373000000000000000000000000000000000000000000000000000081525060400191505060405180910390fd5b6113d981600560008673ffffffffffffffffffffffffffffffffffffffff1673ffffffffffffffffffffffffffffffffffffffff1681526020019081526020016000205461116690919063ffffffff16565b600560008573ffffffffffffffffffffffffffffffffffffffff1673ffffffffffffffffffffffffffffffffffffffff1681526020019081526020016000208190555061146e81600560008573ffffffffffffffffffffffffffffffffffffffff1673ffffffffffffffffffffffffffffffffffffffff1681526020019081526020016000205461151b90919063ffffffff16565b600560008473ffffffffffffffffffffffffffffffffffffffff1673ffffffffffffffffffffffffffffffffffffffff168152602001908152602001600020819055508173ffffffffffffffffffffffffffffffffffffffff168373ffffffffffffffffffffffffffffffffffffffff167fddf252ad1be2c89b69c2b068fc378daa952ba7f163c4a11628f55a4df523b3ef836040518082815260200191505060405180910390a3505050565b600080828401905083811015151561159b576040517f08c379a000000000000000000000000000000000000000000000000000000000815260040180806020018281038252601b8152602001807f536166654d6174683a206164646974696f6e206f766572666c6f77000000000081525060200191505060405180910390fd5b809150509291505056fea165627a7a7230582009f7d3e8ec2a031c9e610f98b82b77ae2353f8dafa52c6bdc633b0f0c8dfea8c0029",
  "source": "pragma solidity ^0.5.0;\n\nimport \"./SimpleCrowdsale.sol\";\n\n\ncontract TranchePricingCrowdsale is SimpleCrowdsale  {\n\n   \tstruct Tranche {\n    \tuint256 weiHighLimit;\n     \tuint256 weiTokenPrice;\n   \t}\n    \n   mapping(uint256 => Tranche) public trancheStructure;\n   uint256 public currentTrancheLevel; // tranch level with respect to investment so far\n\n   constructor  (\n   \t\t\t\tuint256 _startTime,\n   \t\t\t\tuint256 _endTime, \n      \t\t\tuint256 _etherInvestmentObjective\n      \t\t\t) \n      \t\t\tSimpleCrowdsale (_startTime, _endTime, 1, _etherInvestmentObjective) // calling constructor on base contract\n   \t\t\t\tpayable public\n\t\t\t   \t{\n\n\t\t\t\t\t// TODO hardcoded for simplicity, allow feeding these parameters to constructor\n\t\t\t\t    trancheStructure[0] = Tranche(3000 ether, 0.002 ether);\n\t\t\t\t    trancheStructure[1] = Tranche(10000 ether, 0.003 ether);\n\t\t\t\t    trancheStructure[2] = Tranche(15000 ether, 0.004 ether);\n\t\t\t\t    trancheStructure[3] = Tranche(1000000000 ether, 0.005 ether);\n\t\t\t\t        \n\t\t\t\t    currentTrancheLevel = 0;\n\t\t\t    } \n  \n  \t// overrides original calculateNumberOfTokens()\n    function calculateNumberOfTokens(uint256 investment) internal returns (uint256) {\n      \tupdateCurrentTrancheAndPrice();\n      \treturn investment / weiTokenPrice; \n    }\n\n    function updateCurrentTrancheAndPrice() internal {\n    \tuint256 i = currentTrancheLevel;\n      \n      \t// tests to identify where investment falls\n    \twhile(trancheStructure[i].weiHighLimit < investmentReceived) \n        \t++i;\n          \n   \t\tcurrentTrancheLevel = i;\n   \t\t// updates token's weiTokenPrice according to currentTrancheLevel\n    \tweiTokenPrice = trancheStructure[currentTrancheLevel].weiTokenPrice;\n    }\n}\n\n",
  "sourcePath": "/Users/codeme/code/blockchain-developer-bootcamp/src/contracts/TrancheCrowdsale.sol",
  "compiler": {
    "name": "solc",
    "version": "0.5.0+commit.1d4f565a.Emscripten.clang"
  },
  "schemaVersion": "3.0.2",
  "updatedAt": "2019-10-22T20:48:33.696Z",
  "devdoc": {
    "methods": {}
  },
  "userdoc": {
    "methods": {}
  }
}